:1000000099EF03F00000000000EF00F00000000096
:0A0010000000000000000000F3D71C
:0C001C0027B002D08B9601D08B8612001A
:0C00280027B002D08B9801D08B8812000A
:0C00340027B002D08B9401D08B84120006
:0C00400027B002D08B9C01D08B8C1200EA
:0C004C0027B002D08B9801D08B881200E6
:0C00580027B002D08F9201D08F821200DE
:0C00640027B002D08D9201D08D821200D6
:0C00700027B002D0899801D089881200C6
:0C007C0027B002D0899201D089821200C6
:0C00880027B002D08B9C01D08B8C1200A2
:0C00940027B002D08B9A01D08B8A12009A
:0C00A00027B002D08A9201D08A821200A0
:0C00AC0027B002D08B9601D08B8612008A
:0C00B80027B002D08D9401D08D8412007E
:0C00C40027B002D08F9401D08F8412006E
:0C00D00027B002D08A9401D08A8412006C
:0C00DC0027B002D08B9801D08B88120056
:0C00E80027B002D08B9A01D08B8A120046
:0C00F40027B002D08F9001D08F80120046
:0C01000027B002D08B9801D08B88120031
:0C010C0027B002D08B9201D08B82120031
:0C01180027B002D08B9601D08B8612001D
:0C01240027B002D0899401D08984120019
:0C01300027B002D08D9601D08D86120001
:0C013C0027B002D08B9E01D08B8E1200E9
:0C01480027B002D08B9A01D08B8A1200E5
:0C01540027B002D08B9601D08B861200E1
:0C01600027B002D08B9801D08B881200D1
:0C016C0027B002D08B9001D08B801200D5
:0E017800ACB202D00000FCD727C0ADFF1200D1
:0C01860027B002D08B9801D08B881200AB
:0C01920027B002D08D9001D08D801200AB
:0C019E0027B002D0899001D089801200A7
:0C01AA0027B002D08B9601D08B8612008B
:0C01B60027B002D08B9601D08B8612007F
:1001C2000F0121B302D00000FBD727C01CFF120091
:0C01D20027B002D08A9001D08A80120071
:0C01DE0027B002D08B9E01D08B8E120047
:1001EA004DD025B002D0929001D092800F01259176
:1001FA006AD025B002D0949001D0948064D025B002
:10020A0002D0969001D096805ED025B002D0949606
:10021A0001D0948658D025B002D0949801D0948801
:10022A0052D025B002D0949A01D0948A4CD025B0ED
:10023A0002D0949201D0948246D025B002D09390F5
:10024A0001D0938040D025B002D0949E01D0948EE4
:10025A003AD025B002D0949C01D0948C34D025B0E9
:10026A0002D0949601D094862ED025B002D09498CC
:10027A0001D0948828D0010E006E27D02450000A9D
:10028A00B0E02450010AB5E02450020AB8E0245034
:10029A00030ABBE02450040ABEE02450050AC1E068
:1002AA002450060AC4E02450070AC7E02450080A6A
:1002BA00CAE02450090ACDE024500A0AD0E02450AA
:0C02CA000B0AD3E0D8D7000E006E120023
:1002D60024C0F6FF25C0F7FF26C0F8FF0900F5CFBA
:1002E60015F00900F5CF16F00900F5CF17F0090053
:1002F600F5CF18F0080E2424F66E000E2520F76EB2
:10030600000E2620F86E0900F5CF1DF00900F5CF86
:100316001EF00900F5CF1FF00900F5CF20F0040EFE
:100326002424F66E000E2520F76E000E2620F86EA9
:100336000900F5CF19F00900F5CF1AF00900F5CF3D
:0A0346001BF00900F5CF1CF01200B7
:1003500051D025B002D0929401D092840F012595FE
:100360006ED025B002D0969601D0968668D025B082
:1003700002D0969401D0968462D025B002D0949693
:1003800001D094865CD025B002D0949801D0948896
:1003900056D025B002D0949A01D0948A50D025B07E
:1003A00002D0989001D098804AD025B002D0939482
:1003B00001D0938444D025B002D0989401D0988481
:1003C0000F0123953CD025B002D0989201D098829D
:1003D0000F01239334D025B002D0949601D0948697
:1003E0002ED025B002D0949801D0948828D0010E48
:1003F000006E27D02450000AACE02450010AB1E07E
:100400002450020AB4E02450030AB7E02450040A3E
:10041000BAE02450050ABDE02450060AC0E024508A
:10042000070AC3E02450080AC6E02450090ACBE0BA
:1004300024500A0AD0E024500B0AD3E0D8D7000E8B
:04044000006E120038
:10044400F250026EF29E0500FF6A0150FE6E0050EB
:08045400FD6E02BEF28E1200E3
:10045C004DD025B002D0929201D092820F012593FB
:10046C006AD025B002D0929801D0928864D025B081
:10047C0002D0969201D096825ED025B002D094968E
:10048C0001D0948658D025B002D0949801D094888D
:10049C0052D025B002D0949A01D0948A4CD025B079
:1004AC0002D0949401D0948446D025B002D093927B
:1004BC0001D0938240D025B002D0949E01D0948E6E
:1004CC003AD025B002D0949C01D0948C34D025B075
:1004DC0002D0949601D094862ED025B002D0949858
:1004EC0001D0948828D0010E006E27D02450000A29
:1004FC00B0E02450010AB5E02450020AB8E02450C0
:10050C00030ABBE02450040ABEE02450050AC1E0F3
:10051C002450060AC4E02450070AC7E02450080AF5
:10052C00CAE02450090ACDE024500A0AD0E0245035
:0C053C000B0AD3E0D8D7000E006E1200AE
:100548001FC0E1FF20C0E2FF21C0E6FF1DC000F090
:080558001EC001F073DF120068
:1005600021C024F022C025F023C026F0B4DE120002
:1005700017C0E1FF18C0E2FFE66A15C000F016C020
:1005800001F060DF1BC0E1FF1CC0E2FF010EE66E60
:0C05900019C000F01AC001F055DF120085
:10059C0017C0E1FF18C0E2FFE66A15C000F016C0F4
:1005AC0001F04ADF1BC0E1FF1CC0E2FFE66A19C084
:0A05BC0000F01AC001F040DF120049
:1005C60017C0E1FF18C0E2FF010EE66E15C000F08D
:1005D60016C001F034DF1BC0E1FF1CC0E2FFE66A73
:0C05E60019C000F01AC001F02ADF12005A
:1005F20015D022C024F023C025F0F6DD19D022C088
:1006020024F023C025F029DF13D022C024F023C018
:1006120025F09DDE0DD0010E006E0AD02150000A99
:10062200E8E02150010AEBE02150020AEEE0F3D7A4
:020632001200B4
:1006340017C0E1FF18C0E2FF010EE66E15C000F01E
:1006440016C001F0FDDE1BC0E1FF1CC0E2FF010E7D
:0E065400E66E19C000F01AC001F0F2DE1200CE
:10066200216A020E226E236AC3DF216A010E226E04
:10067200236ABEDF216A226A236ABADF090E0B6E81
:100682001E0E0C6EE40E0D6E0D2EFED70C2EFCD738
:080692000B2EFAD70000120044
:10069A0080DFA30E0B6E570E0C6E020E0D6E0D2E22
:1006AA00FED70C2EFCD70B2EFAD700005CDFA30E68
:1006BA000B6E570E0C6E020E0D6E0D2EFED70C2E03
:1006CA00FCD70B2EFAD7000079DFA30E0B6E570E5C
:1006DA000C6E020E0D6E0D2EFED70C2EFCD70B2EB5
:1006EA00FAD70000A2DFA30E0B6E570E0C6E020E95
:1006FA000D6E0D2EFED70C2EFCD70B2EFAD700004E
:02070A001200DB
:10070C000900F5CFE6FF0006FBE10106F9E1120056
:10071C003C0E216E070E226E000E236E1BDF010EA7
:06072C00216E0CDF12003B
:0A07320097DFF3DFB1DFFED7FFD73A
:10073C009E0127006C01270092012700AA012700C7
:10074C00DC002700480127000C012700D2012700FC
:10075C00DE01270088002700AC002700600127007D
:10076C00FFFFFFFFFFFFFFFFFFFFFFFFFFFFFFFF8D
:10077C00FFFFFFFFFFFFFFFFFFFFFFFFFFFFFFFF7D
:10078C00FFFFFFFFFFFFFFFFFFFFFFFFFFFFFFFF6D
:020000040030CA
:0E00000015137F7CF98B91FFFFC0FFE0FF40DE
:00000001FF
